{
  "contractName": "Escrow",
  "abi": [
    {
      "inputs": [
        {
          "internalType": "address",
          "name": "_arbiter",
          "type": "address"
        },
        {
          "internalType": "address",
          "name": "_beneficiary",
          "type": "address"
        }
      ],
      "stateMutability": "payable",
      "type": "constructor"
    },
    {
      "inputs": [],
      "name": "arbiter",
      "outputs": [
        {
          "internalType": "address",
          "name": "",
          "type": "address"
        }
      ],
      "stateMutability": "view",
      "type": "function"
    },
    {
      "inputs": [],
      "name": "beneficiary",
      "outputs": [
        {
          "internalType": "address",
          "name": "",
          "type": "address"
        }
      ],
      "stateMutability": "view",
      "type": "function"
    },
    {
      "inputs": [],
      "name": "depositor",
      "outputs": [
        {
          "internalType": "address",
          "name": "",
          "type": "address"
        }
      ],
      "stateMutability": "view",
      "type": "function"
    },
    {
      "inputs": [],
      "name": "initialDeposit",
      "outputs": [
        {
          "internalType": "uint256",
          "name": "",
          "type": "uint256"
        }
      ],
      "stateMutability": "view",
      "type": "function"
    },
    {
      "inputs": [],
      "name": "approve",
      "outputs": [],
      "stateMutability": "nonpayable",
      "type": "function"
    }
  ],
  "bytecode": "0x608060405260405161053938038061053983398181016040528101906100259190610158565b336000806101000a81548173ffffffffffffffffffffffffffffffffffffffff021916908373ffffffffffffffffffffffffffffffffffffffff16021790555081600160006101000a81548173ffffffffffffffffffffffffffffffffffffffff021916908373ffffffffffffffffffffffffffffffffffffffff16021790555080600260006101000a81548173ffffffffffffffffffffffffffffffffffffffff021916908373ffffffffffffffffffffffffffffffffffffffff160217905550346003819055505050610198565b600080fd5b600073ffffffffffffffffffffffffffffffffffffffff82169050919050565b6000610125826100fa565b9050919050565b6101358161011a565b811461014057600080fd5b50565b6000815190506101528161012c565b92915050565b6000806040838503121561016f5761016e6100f5565b5b600061017d85828601610143565b925050602061018e85828601610143565b9150509250929050565b610392806101a76000396000f3fe608060405234801561001057600080fd5b50600436106100575760003560e01c806312424e3f1461005c57806338af3eed14610066578063c7c4ff4614610084578063e037f889146100a2578063fe25e00a146100c0575b600080fd5b6100646100de565b005b61006e6101d9565b60405161007b9190610290565b60405180910390f35b61008c6101ff565b6040516100999190610290565b60405180910390f35b6100aa610223565b6040516100b791906102c4565b60405180910390f35b6100c8610229565b6040516100d59190610290565b60405180910390f35b600160009054906101000a900473ffffffffffffffffffffffffffffffffffffffff1673ffffffffffffffffffffffffffffffffffffffff163373ffffffffffffffffffffffffffffffffffffffff161461016e576040517f08c379a00000000000000000000000000000000000000000000000000000000081526004016101659061033c565b60405180910390fd5b600260009054906101000a900473ffffffffffffffffffffffffffffffffffffffff1673ffffffffffffffffffffffffffffffffffffffff166108fc479081150290604051600060405180830381858888f193505050501580156101d6573d6000803e3d6000fd5b50565b600260009054906101000a900473ffffffffffffffffffffffffffffffffffffffff1681565b60008054906101000a900473ffffffffffffffffffffffffffffffffffffffff1681565b60035481565b600160009054906101000a900473ffffffffffffffffffffffffffffffffffffffff1681565b600073ffffffffffffffffffffffffffffffffffffffff82169050919050565b600061027a8261024f565b9050919050565b61028a8161026f565b82525050565b60006020820190506102a56000830184610281565b92915050565b6000819050919050565b6102be816102ab565b82525050565b60006020820190506102d960008301846102b5565b92915050565b600082825260208201905092915050565b7f596f7520617265206e6f7420617574686f72697a656421000000000000000000600082015250565b60006103266017836102df565b9150610331826102f0565b602082019050919050565b6000602082019050818103600083015261035581610319565b905091905056fea2646970667358221220fb9ff5a3d3744f4b3fc23920869c719760a8771afbd580464338e79f98e994eb64736f6c63430008090033",
  "immutableReferences": {},
  "source": "// SPDX-License-Identifier: MIT\npragma solidity >=0.4.22 <0.9.0;\n\ncontract Escrow{\n\n  //define variables\n  address public depositor;\n  address public arbiter;\n  address public beneficiary;\n  uint256 public initialDeposit;\n  \n      \n  constructor(address _arbiter, address _beneficiary) payable {\n    depositor = msg.sender;\n    arbiter = _arbiter;\n    beneficiary = _beneficiary;\n    initialDeposit = msg.value;\n  }\n\n  function approve() external {\n    require(msg.sender == arbiter, \"You are not authorized!\");\n    (payable(beneficiary)).transfer(address(this).balance);\n  }\n\n  \n}\n",
  "sourcePath": "C:\\Users\\DELL\\Documents\\Professional Portfolio\\AaveEscrowProject\\contracts\\Escrow.sol",
  "compiler": {
    "name": "solc",
    "version": "0.8.9+commit.e5eed63a.Emscripten.clang"
  },
  "schemaVersion": "3.4.3",
  "updatedAt": "2021-10-02T22:08:31.598Z",
  "devdoc": {
    "kind": "dev",
    "methods": {},
    "version": 1
  },
  "userdoc": {
    "kind": "user",
    "methods": {},
    "version": 1
  }
}